:1000000000308A0019280000233084008313000880
:10001000031918280130F800F701F70B0D28F80B29
:100020000C284A30F700F70B13281628800B0A28F3
:10003000080003081F39830083161F149F141F151F
:100040009F1183130F3085008501831285010030D5
:100050008316880088018312880183160514831291
:10006000051C4E28A101A108031D4E2883168813E4
:10007000831288170430A200FA30A3000420A20BD8
:100080003C2883168813831288130430A200FA30A8
:10009000A3000420A20B4728A10A3328A10183163C
:1000A00085148312851C7128A1012108013C031CC1
:1000B000712883160813831208170330A200FA3040
:1000C000A3000420A20B5F288316081383120813D1
:1000D0000330A200FA30A3000420A20B6A28A10A70
:1000E0005528A101831605158312051D9428A10129
:1000F0002108023C031C9428831688128312881658
:100100000230A200FA30A3000420A20B822883163A
:100110008812831288120230A200FA30A300042051
:10012000A20B8D28A10A7828A101831685158312B8
:10013000851DAF28A1012108033C031CAF288316AD
:10014000081283120816FA30A3000420831608123E
:1001500083120812FA30A3000420A10A9B282D283C
:0201600063003A
:02400E00733FFE
:00000001FF
;PIC16F877
;CRC=5210  CREATED="28-Nis-25 18:13"
